00012345678904321                     12345678901234                     2701161517COB270115170                                                                                                                                                                                                             
350COB270115170                                                                                                                                                                                                                                                                                             
35112345678901234Transportes Lages LTDA                                                                                                                                                                                                                                                                     
35212345678901234000112345678902701201607022016000000000100010B  00000000000112800000000000000000000000000000000000000BANCO NDD                          12349123456789099I                                                                                                                                 
35312345678901234  1      3010000000001000002701201600000000000000000000000000000000000000000031160112345678901234570010000003011000000008Dominio do embarque                               Chave do Embarque                                 000000000001234                                               
354   00000000000000000000000000000000000000000000000000000                                                                                                                                                                                                                                                 
3550001000000000100010     
